{
  "_format": "hh-sol-artifact-1",
  "contractName": "Marketplace",
  "sourceName": "contracts/Marketplace.sol",
  "abi": [
    {
      "inputs": [],
      "stateMutability": "nonpayable",
      "type": "constructor"
    },
    {
      "anonymous": false,
      "inputs": [
        {
          "indexed": true,
          "internalType": "uint256",
          "name": "marketItemId",
          "type": "uint256"
        },
        {
          "indexed": true,
          "internalType": "address",
          "name": "nftContract",
          "type": "address"
        },
        {
          "indexed": true,
          "internalType": "uint256",
          "name": "tokenId",
          "type": "uint256"
        },
        {
          "indexed": false,
          "internalType": "address",
          "name": "creator",
          "type": "address"
        },
        {
          "indexed": false,
          "internalType": "address",
          "name": "seller",
          "type": "address"
        },
        {
          "indexed": false,
          "internalType": "address",
          "name": "owner",
          "type": "address"
        },
        {
          "indexed": false,
          "internalType": "uint256",
          "name": "price",
          "type": "uint256"
        },
        {
          "indexed": false,
          "internalType": "bool",
          "name": "sold",
          "type": "bool"
        },
        {
          "indexed": false,
          "internalType": "bool",
          "name": "canceled",
          "type": "bool"
        }
      ],
      "name": "MarketItemCreated",
      "type": "event"
    },
    {
      "inputs": [
        {
          "internalType": "address",
          "name": "nftContractAddress",
          "type": "address"
        },
        {
          "internalType": "uint256",
          "name": "marketItemId",
          "type": "uint256"
        }
      ],
      "name": "cancelMarketItem",
      "outputs": [],
      "stateMutability": "payable",
      "type": "function"
    },
    {
      "inputs": [
        {
          "internalType": "address",
          "name": "nftContractAddress",
          "type": "address"
        },
        {
          "internalType": "uint256",
          "name": "tokenId",
          "type": "uint256"
        },
        {
          "internalType": "uint256",
          "name": "price",
          "type": "uint256"
        }
      ],
      "name": "createMarketItem",
      "outputs": [
        {
          "internalType": "uint256",
          "name": "",
          "type": "uint256"
        }
      ],
      "stateMutability": "payable",
      "type": "function"
    },
    {
      "inputs": [
        {
          "internalType": "address",
          "name": "nftContractAddress",
          "type": "address"
        },
        {
          "internalType": "uint256",
          "name": "marketItemId",
          "type": "uint256"
        }
      ],
      "name": "createMarketSale",
      "outputs": [],
      "stateMutability": "payable",
      "type": "function"
    },
    {
      "inputs": [],
      "name": "fetchAvailableMarketItems",
      "outputs": [
        {
          "components": [
            {
              "internalType": "uint256",
              "name": "marketItemId",
              "type": "uint256"
            },
            {
              "internalType": "address",
              "name": "nftContractAddress",
              "type": "address"
            },
            {
              "internalType": "uint256",
              "name": "tokenId",
              "type": "uint256"
            },
            {
              "internalType": "address payable",
              "name": "creator",
              "type": "address"
            },
            {
              "internalType": "address payable",
              "name": "seller",
              "type": "address"
            },
            {
              "internalType": "address payable",
              "name": "owner",
              "type": "address"
            },
            {
              "internalType": "uint256",
              "name": "price",
              "type": "uint256"
            },
            {
              "internalType": "bool",
              "name": "sold",
              "type": "bool"
            },
            {
              "internalType": "bool",
              "name": "canceled",
              "type": "bool"
            }
          ],
          "internalType": "struct Marketplace.MarketItem[]",
          "name": "",
          "type": "tuple[]"
        }
      ],
      "stateMutability": "view",
      "type": "function"
    },
    {
      "inputs": [
        {
          "internalType": "string",
          "name": "_addressProperty",
          "type": "string"
        }
      ],
      "name": "fetchMarketItemsByAddressProperty",
      "outputs": [
        {
          "components": [
            {
              "internalType": "uint256",
              "name": "marketItemId",
              "type": "uint256"
            },
            {
              "internalType": "address",
              "name": "nftContractAddress",
              "type": "address"
            },
            {
              "internalType": "uint256",
              "name": "tokenId",
              "type": "uint256"
            },
            {
              "internalType": "address payable",
              "name": "creator",
              "type": "address"
            },
            {
              "internalType": "address payable",
              "name": "seller",
              "type": "address"
            },
            {
              "internalType": "address payable",
              "name": "owner",
              "type": "address"
            },
            {
              "internalType": "uint256",
              "name": "price",
              "type": "uint256"
            },
            {
              "internalType": "bool",
              "name": "sold",
              "type": "bool"
            },
            {
              "internalType": "bool",
              "name": "canceled",
              "type": "bool"
            }
          ],
          "internalType": "struct Marketplace.MarketItem[]",
          "name": "",
          "type": "tuple[]"
        }
      ],
      "stateMutability": "view",
      "type": "function"
    },
    {
      "inputs": [],
      "name": "fetchOwnedMarketItems",
      "outputs": [
        {
          "components": [
            {
              "internalType": "uint256",
              "name": "marketItemId",
              "type": "uint256"
            },
            {
              "internalType": "address",
              "name": "nftContractAddress",
              "type": "address"
            },
            {
              "internalType": "uint256",
              "name": "tokenId",
              "type": "uint256"
            },
            {
              "internalType": "address payable",
              "name": "creator",
              "type": "address"
            },
            {
              "internalType": "address payable",
              "name": "seller",
              "type": "address"
            },
            {
              "internalType": "address payable",
              "name": "owner",
              "type": "address"
            },
            {
              "internalType": "uint256",
              "name": "price",
              "type": "uint256"
            },
            {
              "internalType": "bool",
              "name": "sold",
              "type": "bool"
            },
            {
              "internalType": "bool",
              "name": "canceled",
              "type": "bool"
            }
          ],
          "internalType": "struct Marketplace.MarketItem[]",
          "name": "",
          "type": "tuple[]"
        }
      ],
      "stateMutability": "view",
      "type": "function"
    },
    {
      "inputs": [],
      "name": "fetchSellingMarketItems",
      "outputs": [
        {
          "components": [
            {
              "internalType": "uint256",
              "name": "marketItemId",
              "type": "uint256"
            },
            {
              "internalType": "address",
              "name": "nftContractAddress",
              "type": "address"
            },
            {
              "internalType": "uint256",
              "name": "tokenId",
              "type": "uint256"
            },
            {
              "internalType": "address payable",
              "name": "creator",
              "type": "address"
            },
            {
              "internalType": "address payable",
              "name": "seller",
              "type": "address"
            },
            {
              "internalType": "address payable",
              "name": "owner",
              "type": "address"
            },
            {
              "internalType": "uint256",
              "name": "price",
              "type": "uint256"
            },
            {
              "internalType": "bool",
              "name": "sold",
              "type": "bool"
            },
            {
              "internalType": "bool",
              "name": "canceled",
              "type": "bool"
            }
          ],
          "internalType": "struct Marketplace.MarketItem[]",
          "name": "",
          "type": "tuple[]"
        }
      ],
      "stateMutability": "view",
      "type": "function"
    },
    {
      "inputs": [
        {
          "internalType": "uint256",
          "name": "tokenId",
          "type": "uint256"
        }
      ],
      "name": "getLatestMarketItemByTokenId",
      "outputs": [
        {
          "components": [
            {
              "internalType": "uint256",
              "name": "marketItemId",
              "type": "uint256"
            },
            {
              "internalType": "address",
              "name": "nftContractAddress",
              "type": "address"
            },
            {
              "internalType": "uint256",
              "name": "tokenId",
              "type": "uint256"
            },
            {
              "internalType": "address payable",
              "name": "creator",
              "type": "address"
            },
            {
              "internalType": "address payable",
              "name": "seller",
              "type": "address"
            },
            {
              "internalType": "address payable",
              "name": "owner",
              "type": "address"
            },
            {
              "internalType": "uint256",
              "name": "price",
              "type": "uint256"
            },
            {
              "internalType": "bool",
              "name": "sold",
              "type": "bool"
            },
            {
              "internalType": "bool",
              "name": "canceled",
              "type": "bool"
            }
          ],
          "internalType": "struct Marketplace.MarketItem",
          "name": "",
          "type": "tuple"
        },
        {
          "internalType": "bool",
          "name": "",
          "type": "bool"
        }
      ],
      "stateMutability": "view",
      "type": "function"
    },
    {
      "inputs": [],
      "name": "getListingFee",
      "outputs": [
        {
          "internalType": "uint256",
          "name": "",
          "type": "uint256"
        }
      ],
      "stateMutability": "view",
      "type": "function"
    }
  ],
  "bytecode": "0x6080604052669fdf42f6e4800060055534801561001b57600080fd5b506001600055600480546001600160a01b0319163317905561149b806100426000396000f3fe6080604052600436106100865760003560e01c80636f9b4920116100595780636f9b492014610101578063b3e3c42f1461012f578063b8fe6abe14610144578063c23b139e14610159578063cd90fdf41461016c57600080fd5b80630203c8231461008b5780630e01c969146100b65780634cf2a069146100cb57806358eb2df5146100e0575b600080fd5b34801561009757600080fd5b506100a061018c565b6040516100ad91906112e2565b60405180910390f35b3480156100c257600080fd5b506100a06101b9565b3480156100d757600080fd5b506100a0610376565b6100f36100ee366004611121565b61039f565b6040519081526020016100ad565b34801561010d57600080fd5b5061012161011c3660046111ff565b61079e565b6040516100ad9291906113a1565b61014261013d3660046110f6565b61088a565b005b34801561015057600080fd5b506005546100f3565b6101426101673660046110f6565b610a21565b34801561017857600080fd5b506100a0610187366004611155565b610bf5565b60606101b46040518060400160405280600581526020016437bbb732b960d91b815250610bf5565b905090565b606060006101c660015490565b905060006101d360025490565b905060006101e060035490565b90506000816101ef84866113d8565b6101f991906113d8565b905060008167ffffffffffffffff81111561022457634e487b7160e01b600052604160045260246000fd5b60405190808252806020026020018201604052801561025d57816020015b61024a61108e565b8152602001906001900390816102425790505b5090506000805b8681101561036a57600060068161027c8460016113c0565b815260208082019290925260409081016000208151610120810183528154815260018201546001600160a01b0390811694820194909452600282015492810192909252600381015483166060830152600481015483166080830152600581015490921660a08201819052600683015460c083015260079092015460ff808216151560e0840152610100918290041615159082015291501561031d5750610358565b8084848151811061033e57634e487b7160e01b600052603260045260246000fd5b60209081029190910101526103546001846113c0565b9250505b8061036281611406565b915050610264565b50909695505050505050565b60606101b46040518060400160405280600681526020016539b2b63632b960d11b815250610bf5565b6000600260005414156103cd5760405162461bcd60e51b81526004016103c49061136a565b60405180910390fd5b60026000558161041f5760405162461bcd60e51b815260206004820152601c60248201527f5072696365206d757374206265206174206c656173742031207765690000000060448201526064016103c4565b600554341461047c5760405162461bcd60e51b8152602060048201526024808201527f5072696365206d75737420626520657175616c20746f206c697374696e6720706044820152637269636560e01b60648201526084016103c4565b61048a600180546001019055565b600061049560015490565b60405163867d339760e01b8152600481018690529091506000906001600160a01b0387169063867d33979060240160206040518083038186803b1580156104db57600080fd5b505afa1580156104ef573d6000803e3d6000fd5b505050506040513d601f19601f8201168201806040525081019061051391906110da565b9050604051806101200160405280838152602001876001600160a01b03168152602001868152602001826001600160a01b03168152602001336001600160a01b0316815260200160006001600160a01b0316815260200185815260200160001515815260200160001515815250600660008481526020019081526020016000206000820151816000015560208201518160010160006101000a8154816001600160a01b0302191690836001600160a01b031602179055506040820151816002015560608201518160030160006101000a8154816001600160a01b0302191690836001600160a01b0316021790555060808201518160040160006101000a8154816001600160a01b0302191690836001600160a01b0316021790555060a08201518160050160006101000a8154816001600160a01b0302191690836001600160a01b0316021790555060c0820151816006015560e08201518160070160006101000a81548160ff0219169083151502179055506101008201518160070160016101000a81548160ff021916908315150217905550905050856001600160a01b03166323b872dd3330886040518463ffffffff1660e01b81526004016106f8939291906001600160a01b039384168152919092166020820152604081019190915260600190565b600060405180830381600087803b15801561071257600080fd5b505af1158015610726573d6000803e3d6000fd5b5050604080516001600160a01b0385811682523360208301526000828401819052606083018a90526080830181905260a08301529151899450918a16925085917fa3b15201f5409f14cce6233dc60972278c313ff3ddbdee57ff092c0e953135269181900360c00190a4506001600055949350505050565b6107a661108e565b6000806107b260015490565b9050805b8015610876576000818152600660208181526040928390208351610120810185528154815260018201546001600160a01b03908116938201939093526002820154948101859052600382015483166060820152600482015483166080820152600582015490921660a08301529182015460c082015260079091015460ff808216151560e084015261010091829004161515908201529086146108585750610864565b95600195509350505050565b8061086e816113ef565b9150506107b6565b5061087f61108e565b946000945092505050565b600260005414156108ad5760405162461bcd60e51b81526004016103c49061136a565b6002600081815582815260066020526040902001548061090f5760405162461bcd60e51b815260206004820152601860248201527f4d61726b6574206974656d2068617320746f206578697374000000000000000060448201526064016103c4565b6000828152600660205260409020600401546001600160a01b031633146109715760405162461bcd60e51b81526020600482015260166024820152752cb7ba9030b932903737ba103a34329039b2b63632b960511b60448201526064016103c4565b6040516323b872dd60e01b8152306004820152336024820152604481018290526001600160a01b038416906323b872dd90606401600060405180830381600087803b1580156109bf57600080fd5b505af11580156109d3573d6000803e3d6000fd5b50505060008381526006602052604090206005810180546001600160a01b03191633179055600701805461ff00191661010017905550610a17600380546001019055565b5050600160005550565b60026000541415610a445760405162461bcd60e51b81526004016103c49061136a565b6002600081815582815260066020819052604090912090810154910154348214610acc5760405162461bcd60e51b815260206004820152603360248201527f506c65617365207375626d6974207468652061736b696e6720707269636520696044820152726e206f7264657220746f20636f6e74696e756560681b60648201526084016103c4565b6000838152600660205260408082206005810180546001600160a01b0319163317905560078101805460ff191660011790556004015490516001600160a01b0391909116913480156108fc02929091818181858888f19350505050158015610b38573d6000803e3d6000fd5b506040516323b872dd60e01b8152306004820152336024820152604481018290526001600160a01b038516906323b872dd90606401600060405180830381600087803b158015610b8757600080fd5b505af1158015610b9b573d6000803e3d6000fd5b50505050610bad600280546001019055565b6004546005546040516001600160a01b039092169181156108fc0291906000818181858888f19350505050158015610be9573d6000803e3d6000fd5b50506001600055505050565b6060610c1f826040518060400160405280600681526020016539b2b63632b960d11b815250610f7f565b80610c4c5750610c4c826040518060400160405280600581526020016437bbb732b960d91b815250610f7f565b610c685760405162461bcd60e51b81526004016103c490611325565b6000610c7360015490565b905060008060005b83811015610d6e576000600681610c938460016113c0565b8152602080820192909252604090810160009081208251610120810184528154815260018201546001600160a01b0390811695820195909552600282015493810193909352600381015484166060840152600481015484166080840152600581015490931660a0830152600683015460c0830152600783015460ff808216151560e08501526101009182900416151590830152919250610d339089610fd8565b90506001600160a01b0381163314610d4c575050610d5c565b610d576001866113c0565b945050505b80610d6681611406565b915050610c7b565b5060008267ffffffffffffffff811115610d9857634e487b7160e01b600052604160045260246000fd5b604051908082528060200260200182016040528015610dd157816020015b610dbe61108e565b815260200190600190039081610db65790505b50905060005b84811015610f75576000600681610def8460016113c0565b8152602080820192909252604090810160009081208251610120810184528154815260018201546001600160a01b0390811695820195909552600282015493810193909352600381015484166060840152600481015484166080840152600581015490931660a0830152600683015460c0830152600783015460ff808216151560e08501526101009182900416151590830152919250610e8f908a610fd8565b90506001600160a01b0381163314610ea8575050610f63565b60408051610120810182528354815260018401546001600160a01b039081166020830152600285015492820192909252600384015482166060820152600484015482166080820152600584015490911660a0820152600683015460c0820152600783015460ff808216151560e084015261010091829004161515908201528451859087908110610f4857634e487b7160e01b600052603260045260246000fd5b6020908102919091010152610f5e6001866113c0565b945050505b80610f6d81611406565b915050610dd7565b5095945050505050565b600081604051602001610f9291906112a9565b6040516020818303038152906040528051906020012083604051602001610fb991906112a9565b6040516020818303038152906040528051906020012014905092915050565b6000611002826040518060400160405280600681526020016539b2b63632b960d11b815250610f7f565b8061102f575061102f826040518060400160405280600581526020016437bbb732b960d91b815250610f7f565b61104b5760405162461bcd60e51b81526004016103c490611325565b611073826040518060400160405280600681526020016539b2b63632b960d11b815250610f7f565b611081578260a00151611087565b82608001515b9392505050565b6040805161012081018252600080825260208201819052918101829052606081018290526080810182905260a0810182905260c0810182905260e0810182905261010081019190915290565b6000602082840312156110eb578081fd5b81516110878161144d565b60008060408385031215611108578081fd5b82356111138161144d565b946020939093013593505050565b600080600060608486031215611135578081fd5b83356111408161144d565b95602085013595506040909401359392505050565b600060208284031215611166578081fd5b813567ffffffffffffffff8082111561117d578283fd5b818401915084601f830112611190578283fd5b8135818111156111a2576111a2611437565b604051601f8201601f19908116603f011681019083821181831017156111ca576111ca611437565b816040528281528760208487010111156111e2578586fd5b826020860160208301379182016020019490945295945050505050565b600060208284031215611210578081fd5b5035919050565b80518252602081015160018060a01b038082166020850152604083015160408501528060608401511660608501525050608081015161126160808401826001600160a01b03169052565b5060a081015161127c60a08401826001600160a01b03169052565b5060c081015160c083015260e081015161129a60e084018215159052565b50610100908101511515910152565b60008251815b818110156112c957602081860181015185830152016112af565b818111156112d75782828501525b509190910192915050565b6020808252825182820181905260009190848201906040850190845b8181101561036a57611311838551611217565b9284019261012092909201916001016112fe565b60208082526025908201527f506172616d65746572206d757374206265202773656c6c657227206f7220276f604082015264776e65722760d81b606082015260800190565b6020808252601f908201527f5265656e7472616e637947756172643a207265656e7472616e742063616c6c00604082015260600190565b61014081016113b08285611217565b8215156101208301529392505050565b600082198211156113d3576113d3611421565b500190565b6000828210156113ea576113ea611421565b500390565b6000816113fe576113fe611421565b506000190190565b600060001982141561141a5761141a611421565b5060010190565b634e487b7160e01b600052601160045260246000fd5b634e487b7160e01b600052604160045260246000fd5b6001600160a01b038116811461146257600080fd5b5056fea264697066735822122059c4023a33075d15ca90ef9d286757f199ea7a068d26fc9510b5820acd11e2dd64736f6c63430008040033",
  "linkReferences": {},
  "deployedLinkReferences": {}
}