{
  "_format": "hh-sol-artifact-1",
  "contractName": "NFT",
  "sourceName": "contracts/NFT.sol",
  "abi": [
    {
      "inputs": [
        {
          "internalType": "address",
          "name": "_marketplaceAddress",
          "type": "address"
        }
      ],
      "stateMutability": "nonpayable",
      "type": "constructor"
    },
    {
      "anonymous": false,
      "inputs": [
        {
          "indexed": true,
          "internalType": "address",
          "name": "owner",
          "type": "address"
        },
        {
          "indexed": true,
          "internalType": "address",
          "name": "approved",
          "type": "address"
        },
        {
          "indexed": true,
          "internalType": "uint256",
          "name": "tokenId",
          "type": "uint256"
        }
      ],
      "name": "Approval",
      "type": "event"
    },
    {
      "anonymous": false,
      "inputs": [
        {
          "indexed": true,
          "internalType": "address",
          "name": "owner",
          "type": "address"
        },
        {
          "indexed": true,
          "internalType": "address",
          "name": "operator",
          "type": "address"
        },
        {
          "indexed": false,
          "internalType": "bool",
          "name": "approved",
          "type": "bool"
        }
      ],
      "name": "ApprovalForAll",
      "type": "event"
    },
    {
      "anonymous": false,
      "inputs": [
        {
          "indexed": true,
          "internalType": "uint256",
          "name": "tokenId",
          "type": "uint256"
        },
        {
          "indexed": false,
          "internalType": "string",
          "name": "tokenURI",
          "type": "string"
        },
        {
          "indexed": false,
          "internalType": "address",
          "name": "marketplaceAddress",
          "type": "address"
        }
      ],
      "name": "TokenMinted",
      "type": "event"
    },
    {
      "anonymous": false,
      "inputs": [
        {
          "indexed": true,
          "internalType": "address",
          "name": "from",
          "type": "address"
        },
        {
          "indexed": true,
          "internalType": "address",
          "name": "to",
          "type": "address"
        },
        {
          "indexed": true,
          "internalType": "uint256",
          "name": "tokenId",
          "type": "uint256"
        }
      ],
      "name": "Transfer",
      "type": "event"
    },
    {
      "inputs": [
        {
          "internalType": "address",
          "name": "to",
          "type": "address"
        },
        {
          "internalType": "uint256",
          "name": "tokenId",
          "type": "uint256"
        }
      ],
      "name": "approve",
      "outputs": [],
      "stateMutability": "nonpayable",
      "type": "function"
    },
    {
      "inputs": [
        {
          "internalType": "address",
          "name": "owner",
          "type": "address"
        }
      ],
      "name": "balanceOf",
      "outputs": [
        {
          "internalType": "uint256",
          "name": "",
          "type": "uint256"
        }
      ],
      "stateMutability": "view",
      "type": "function"
    },
    {
      "inputs": [
        {
          "internalType": "uint256",
          "name": "tokenId",
          "type": "uint256"
        }
      ],
      "name": "getApproved",
      "outputs": [
        {
          "internalType": "address",
          "name": "",
          "type": "address"
        }
      ],
      "stateMutability": "view",
      "type": "function"
    },
    {
      "inputs": [
        {
          "internalType": "uint256",
          "name": "tokenId",
          "type": "uint256"
        }
      ],
      "name": "getTokenCreatorById",
      "outputs": [
        {
          "internalType": "address",
          "name": "",
          "type": "address"
        }
      ],
      "stateMutability": "view",
      "type": "function"
    },
    {
      "inputs": [],
      "name": "getTokensCreatedByMe",
      "outputs": [
        {
          "internalType": "uint256[]",
          "name": "",
          "type": "uint256[]"
        }
      ],
      "stateMutability": "view",
      "type": "function"
    },
    {
      "inputs": [],
      "name": "getTokensOwnedByMe",
      "outputs": [
        {
          "internalType": "uint256[]",
          "name": "",
          "type": "uint256[]"
        }
      ],
      "stateMutability": "view",
      "type": "function"
    },
    {
      "inputs": [
        {
          "internalType": "address",
          "name": "owner",
          "type": "address"
        },
        {
          "internalType": "address",
          "name": "operator",
          "type": "address"
        }
      ],
      "name": "isApprovedForAll",
      "outputs": [
        {
          "internalType": "bool",
          "name": "",
          "type": "bool"
        }
      ],
      "stateMutability": "view",
      "type": "function"
    },
    {
      "inputs": [
        {
          "internalType": "string",
          "name": "tokenURI",
          "type": "string"
        }
      ],
      "name": "mintToken",
      "outputs": [
        {
          "internalType": "uint256",
          "name": "",
          "type": "uint256"
        }
      ],
      "stateMutability": "nonpayable",
      "type": "function"
    },
    {
      "inputs": [],
      "name": "name",
      "outputs": [
        {
          "internalType": "string",
          "name": "",
          "type": "string"
        }
      ],
      "stateMutability": "view",
      "type": "function"
    },
    {
      "inputs": [
        {
          "internalType": "uint256",
          "name": "tokenId",
          "type": "uint256"
        }
      ],
      "name": "ownerOf",
      "outputs": [
        {
          "internalType": "address",
          "name": "",
          "type": "address"
        }
      ],
      "stateMutability": "view",
      "type": "function"
    },
    {
      "inputs": [
        {
          "internalType": "address",
          "name": "from",
          "type": "address"
        },
        {
          "internalType": "address",
          "name": "to",
          "type": "address"
        },
        {
          "internalType": "uint256",
          "name": "tokenId",
          "type": "uint256"
        }
      ],
      "name": "safeTransferFrom",
      "outputs": [],
      "stateMutability": "nonpayable",
      "type": "function"
    },
    {
      "inputs": [
        {
          "internalType": "address",
          "name": "from",
          "type": "address"
        },
        {
          "internalType": "address",
          "name": "to",
          "type": "address"
        },
        {
          "internalType": "uint256",
          "name": "tokenId",
          "type": "uint256"
        },
        {
          "internalType": "bytes",
          "name": "_data",
          "type": "bytes"
        }
      ],
      "name": "safeTransferFrom",
      "outputs": [],
      "stateMutability": "nonpayable",
      "type": "function"
    },
    {
      "inputs": [
        {
          "internalType": "address",
          "name": "operator",
          "type": "address"
        },
        {
          "internalType": "bool",
          "name": "approved",
          "type": "bool"
        }
      ],
      "name": "setApprovalForAll",
      "outputs": [],
      "stateMutability": "nonpayable",
      "type": "function"
    },
    {
      "inputs": [
        {
          "internalType": "bytes4",
          "name": "interfaceId",
          "type": "bytes4"
        }
      ],
      "name": "supportsInterface",
      "outputs": [
        {
          "internalType": "bool",
          "name": "",
          "type": "bool"
        }
      ],
      "stateMutability": "view",
      "type": "function"
    },
    {
      "inputs": [],
      "name": "symbol",
      "outputs": [
        {
          "internalType": "string",
          "name": "",
          "type": "string"
        }
      ],
      "stateMutability": "view",
      "type": "function"
    },
    {
      "inputs": [
        {
          "internalType": "uint256",
          "name": "tokenId",
          "type": "uint256"
        }
      ],
      "name": "tokenURI",
      "outputs": [
        {
          "internalType": "string",
          "name": "",
          "type": "string"
        }
      ],
      "stateMutability": "view",
      "type": "function"
    },
    {
      "inputs": [
        {
          "internalType": "address",
          "name": "from",
          "type": "address"
        },
        {
          "internalType": "address",
          "name": "to",
          "type": "address"
        },
        {
          "internalType": "uint256",
          "name": "tokenId",
          "type": "uint256"
        }
      ],
      "name": "transferFrom",
      "outputs": [],
      "stateMutability": "nonpayable",
      "type": "function"
    }
  ],
  "bytecode": "0x60806040523480156200001157600080fd5b5060405162001c6538038062001c6583398101604081905262000034916200016a565b604080518082018252600a8152694e46542053616d706c6560b01b60208083019182528351808501909452600684526553414d504c4560d01b9084015281519192916200008491600091620000c4565b5080516200009a906001906020840190620000c4565b5050600880546001600160a01b0319166001600160a01b03939093169290921790915550620001d7565b828054620000d2906200019a565b90600052602060002090601f016020900481019282620000f6576000855562000141565b82601f106200011157805160ff191683800117855562000141565b8280016001018555821562000141579182015b828111156200014157825182559160200191906001019062000124565b506200014f92915062000153565b5090565b5b808211156200014f576000815560010162000154565b6000602082840312156200017c578081fd5b81516001600160a01b038116811462000193578182fd5b9392505050565b600181811c90821680620001af57607f821691505b60208210811415620001d157634e487b7160e01b600052602260045260246000fd5b50919050565b611a7e80620001e76000396000f3fe608060405234801561001057600080fd5b506004361061010b5760003560e01c80635ba37742116100a257806395d89b411161007157806395d89b4114610240578063a22cb46514610248578063b88d4fde1461025b578063c87b56dd1461026e578063e985e9c51461028157600080fd5b80635ba37742146101e95780636352211e146101f157806370a0823114610204578063867d33971461021757600080fd5b80630a989d9c116100de5780630a989d9c1461018d57806323b872dd146101a257806333eba49a146101b557806342842e0e146101d657600080fd5b806301ffc9a71461011057806306fdde0314610138578063081812fc1461014d578063095ea7b314610178575b600080fd5b61012361011e3660046116c2565b6102bd565b60405190151581526020015b60405180910390f35b61014061030f565b60405161012f9190611834565b61016061015b366004611740565b6103a1565b6040516001600160a01b03909116815260200161012f565b61018b610186366004611699565b61042e565b005b610195610544565b60405161012f91906117f0565b61018b6101b03660046115ab565b610645565b6101c86101c33660046116fa565b610676565b60405190815260200161012f565b61018b6101e43660046115ab565b61072b565b610195610746565b6101606101ff366004611740565b610899565b6101c861021236600461155f565b610910565b610160610225366004611740565b6000908152600960205260409020546001600160a01b031690565b610140610997565b61018b61025636600461165f565b6109a6565b61018b6102693660046115e6565b6109b5565b61014061027c366004611740565b6109ed565b61012361028f366004611579565b6001600160a01b03918216600090815260056020908152604080832093909416825291909152205460ff1690565b60006001600160e01b031982166380ac58cd60e01b14806102ee57506001600160e01b03198216635b5e139f60e01b145b8061030957506301ffc9a760e01b6001600160e01b03198316145b92915050565b60606000805461031e90611983565b80601f016020809104026020016040519081016040528092919081815260200182805461034a90611983565b80156103975780601f1061036c57610100808354040283529160200191610397565b820191906000526020600020905b81548152906001019060200180831161037a57829003601f168201915b5050505050905090565b60006103ac82610b64565b6104125760405162461bcd60e51b815260206004820152602c60248201527f4552433732313a20617070726f76656420717565727920666f72206e6f6e657860448201526b34b9ba32b73a103a37b5b2b760a11b60648201526084015b60405180910390fd5b506000908152600460205260409020546001600160a01b031690565b600061043982610899565b9050806001600160a01b0316836001600160a01b031614156104a75760405162461bcd60e51b815260206004820152602160248201527f4552433732313a20617070726f76616c20746f2063757272656e74206f776e656044820152603960f91b6064820152608401610409565b336001600160a01b03821614806104c357506104c3813361028f565b6105355760405162461bcd60e51b815260206004820152603860248201527f4552433732313a20617070726f76652063616c6c6572206973206e6f74206f7760448201527f6e6572206e6f7220617070726f76656420666f7220616c6c00000000000000006064820152608401610409565b61053f8383610b81565b505050565b6060600061055160075490565b9050600061055e33610910565b905060008167ffffffffffffffff81111561058957634e487b7160e01b600052604160045260246000fd5b6040519080825280602002602001820160405280156105b2578160200160208202803683370190505b5090506000805b8481101561063b5760006105ce826001611914565b9050336105da82610899565b6001600160a01b0316146105ee5750610629565b8084848151811061060f57634e487b7160e01b600052603260045260246000fd5b6020908102919091010152610625600184611914565b9250505b80610633816119be565b9150506105b9565b5090949350505050565b61064f3382610bef565b61066b5760405162461bcd60e51b8152600401610409906118c3565b61053f838383610cd5565b6000610686600780546001019055565b600061069160075490565b905061069d3382610e75565b600081815260096020526040902080546001600160a01b031916331790556106c58184610fa8565b6008546106dc906001600160a01b031660016109a6565b60085460405182917f9ef9d09a98563c827f651a028105395cc17f94ef23eb26b70d241439386a62f49161071d9187916001600160a01b0390911690611847565b60405180910390a292915050565b61053f838383604051806020016040528060008152506109b5565b6060600061075360075490565b90506000805b828110156107b657600061076e826001611914565b6000818152600960205260409020549091506001600160a01b0316331461079557506107a4565b6107a0600184611914565b9250505b806107ae816119be565b915050610759565b5060008167ffffffffffffffff8111156107e057634e487b7160e01b600052604160045260246000fd5b604051908082528060200260200182016040528015610809578160200160208202803683370190505b5090506000805b8481101561063b576000610825826001611914565b6000818152600960205260409020549091506001600160a01b0316331461084c5750610887565b8084848151811061086d57634e487b7160e01b600052603260045260246000fd5b6020908102919091010152610883600184611914565b9250505b80610891816119be565b915050610810565b6000818152600260205260408120546001600160a01b0316806103095760405162461bcd60e51b815260206004820152602960248201527f4552433732313a206f776e657220717565727920666f72206e6f6e657869737460448201526832b73a103a37b5b2b760b91b6064820152608401610409565b60006001600160a01b03821661097b5760405162461bcd60e51b815260206004820152602a60248201527f4552433732313a2062616c616e636520717565727920666f7220746865207a65604482015269726f206164647265737360b01b6064820152608401610409565b506001600160a01b031660009081526003602052604090205490565b60606001805461031e90611983565b6109b1338383611033565b5050565b6109bf3383610bef565b6109db5760405162461bcd60e51b8152600401610409906118c3565b6109e784848484611102565b50505050565b60606109f882610b64565b610a5e5760405162461bcd60e51b815260206004820152603160248201527f45524337323155524953746f726167653a2055524920717565727920666f72206044820152703737b732bc34b9ba32b73a103a37b5b2b760791b6064820152608401610409565b60008281526006602052604081208054610a7790611983565b80601f0160208091040260200160405190810160405280929190818152602001828054610aa390611983565b8015610af05780601f10610ac557610100808354040283529160200191610af0565b820191906000526020600020905b815481529060010190602001808311610ad357829003601f168201915b505050505090506000610b0e60408051602081019091526000815290565b9050805160001415610b21575092915050565b815115610b53578082604051602001610b3b929190611784565b60405160208183030381529060405292505050919050565b610b5c84611135565b949350505050565b6000908152600260205260409020546001600160a01b0316151590565b600081815260046020526040902080546001600160a01b0319166001600160a01b0384169081179091558190610bb682610899565b6001600160a01b03167f8c5be1e5ebec7d5bd14f71427d1e84f3dd0314c0f7b2291e5b200ac8c7c3b92560405160405180910390a45050565b6000610bfa82610b64565b610c5b5760405162461bcd60e51b815260206004820152602c60248201527f4552433732313a206f70657261746f7220717565727920666f72206e6f6e657860448201526b34b9ba32b73a103a37b5b2b760a11b6064820152608401610409565b6000610c6683610899565b9050806001600160a01b0316846001600160a01b03161480610ca15750836001600160a01b0316610c96846103a1565b6001600160a01b0316145b80610b5c57506001600160a01b0380821660009081526005602090815260408083209388168352929052205460ff16610b5c565b826001600160a01b0316610ce882610899565b6001600160a01b031614610d505760405162461bcd60e51b815260206004820152602960248201527f4552433732313a207472616e73666572206f6620746f6b656e2074686174206960448201526839903737ba1037bbb760b91b6064820152608401610409565b6001600160a01b038216610db25760405162461bcd60e51b8152602060048201526024808201527f4552433732313a207472616e7366657220746f20746865207a65726f206164646044820152637265737360e01b6064820152608401610409565b610dbd600082610b81565b6001600160a01b0383166000908152600360205260408120805460019290610de6908490611940565b90915550506001600160a01b0382166000908152600360205260408120805460019290610e14908490611914565b909155505060008181526002602052604080822080546001600160a01b0319166001600160a01b0386811691821790925591518493918716917fddf252ad1be2c89b69c2b068fc378daa952ba7f163c4a11628f55a4df523b3ef91a4505050565b6001600160a01b038216610ecb5760405162461bcd60e51b815260206004820181905260248201527f4552433732313a206d696e7420746f20746865207a65726f20616464726573736044820152606401610409565b610ed481610b64565b15610f215760405162461bcd60e51b815260206004820152601c60248201527f4552433732313a20746f6b656e20616c7265616479206d696e746564000000006044820152606401610409565b6001600160a01b0382166000908152600360205260408120805460019290610f4a908490611914565b909155505060008181526002602052604080822080546001600160a01b0319166001600160a01b03861690811790915590518392907fddf252ad1be2c89b69c2b068fc378daa952ba7f163c4a11628f55a4df523b3ef908290a45050565b610fb182610b64565b6110145760405162461bcd60e51b815260206004820152602e60248201527f45524337323155524953746f726167653a2055524920736574206f66206e6f6e60448201526d32bc34b9ba32b73a103a37b5b2b760911b6064820152608401610409565b6000828152600660209081526040909120825161053f92840190611434565b816001600160a01b0316836001600160a01b031614156110955760405162461bcd60e51b815260206004820152601960248201527f4552433732313a20617070726f766520746f2063616c6c6572000000000000006044820152606401610409565b6001600160a01b03838116600081815260056020908152604080832094871680845294825291829020805460ff191686151590811790915591519182527f17307eab39ab6107e8899845ad3d59bd9653f200f220920489ca2b5937696c31910160405180910390a3505050565b61110d848484610cd5565b6111198484848461120d565b6109e75760405162461bcd60e51b815260040161040990611871565b606061114082610b64565b6111a45760405162461bcd60e51b815260206004820152602f60248201527f4552433732314d657461646174613a2055524920717565727920666f72206e6f60448201526e3732bc34b9ba32b73a103a37b5b2b760891b6064820152608401610409565b60006111bb60408051602081019091526000815290565b905060008151116111db5760405180602001604052806000815250611206565b806111e58461131a565b6040516020016111f6929190611784565b6040516020818303038152906040525b9392505050565b60006001600160a01b0384163b1561130f57604051630a85bd0160e11b81526001600160a01b0385169063150b7a02906112519033908990889088906004016117b3565b602060405180830381600087803b15801561126b57600080fd5b505af192505050801561129b575060408051601f3d908101601f19168201909252611298918101906116de565b60015b6112f5573d8080156112c9576040519150601f19603f3d011682016040523d82523d6000602084013e6112ce565b606091505b5080516112ed5760405162461bcd60e51b815260040161040990611871565b805181602001fd5b6001600160e01b031916630a85bd0160e11b149050610b5c565b506001949350505050565b60608161133e5750506040805180820190915260018152600360fc1b602082015290565b8160005b81156113685780611352816119be565b91506113619050600a8361192c565b9150611342565b60008167ffffffffffffffff81111561139157634e487b7160e01b600052604160045260246000fd5b6040519080825280601f01601f1916602001820160405280156113bb576020820181803683370190505b5090505b8415610b5c576113d0600183611940565b91506113dd600a866119d9565b6113e8906030611914565b60f81b81838151811061140b57634e487b7160e01b600052603260045260246000fd5b60200101906001600160f81b031916908160001a90535061142d600a8661192c565b94506113bf565b82805461144090611983565b90600052602060002090601f01602090048101928261146257600085556114a8565b82601f1061147b57805160ff19168380011785556114a8565b828001600101855582156114a8579182015b828111156114a857825182559160200191906001019061148d565b506114b49291506114b8565b5090565b5b808211156114b457600081556001016114b9565b600067ffffffffffffffff808411156114e8576114e8611a19565b604051601f8501601f19908116603f0116810190828211818310171561151057611510611a19565b8160405280935085815286868601111561152957600080fd5b858560208301376000602087830101525050509392505050565b80356001600160a01b038116811461155a57600080fd5b919050565b600060208284031215611570578081fd5b61120682611543565b6000806040838503121561158b578081fd5b61159483611543565b91506115a260208401611543565b90509250929050565b6000806000606084860312156115bf578081fd5b6115c884611543565b92506115d660208501611543565b9150604084013590509250925092565b600080600080608085870312156115fb578081fd5b61160485611543565b935061161260208601611543565b925060408501359150606085013567ffffffffffffffff811115611634578182fd5b8501601f81018713611644578182fd5b611653878235602084016114cd565b91505092959194509250565b60008060408385031215611671578182fd5b61167a83611543565b91506020830135801515811461168e578182fd5b809150509250929050565b600080604083850312156116ab578182fd5b6116b483611543565b946020939093013593505050565b6000602082840312156116d3578081fd5b813561120681611a2f565b6000602082840312156116ef578081fd5b815161120681611a2f565b60006020828403121561170b578081fd5b813567ffffffffffffffff811115611721578182fd5b8201601f81018413611731578182fd5b610b5c848235602084016114cd565b600060208284031215611751578081fd5b5035919050565b60008151808452611770816020860160208601611957565b601f01601f19169290920160200192915050565b60008351611796818460208801611957565b8351908301906117aa818360208801611957565b01949350505050565b6001600160a01b03858116825284166020820152604081018390526080606082018190526000906117e690830184611758565b9695505050505050565b6020808252825182820181905260009190848201906040850190845b818110156118285783518352928401929184019160010161180c565b50909695505050505050565b6020815260006112066020830184611758565b60408152600061185a6040830185611758565b905060018060a01b03831660208301529392505050565b60208082526032908201527f4552433732313a207472616e7366657220746f206e6f6e20455243373231526560408201527131b2b4bb32b91034b6b83632b6b2b73a32b960711b606082015260800190565b60208082526031908201527f4552433732313a207472616e736665722063616c6c6572206973206e6f74206f6040820152701ddb995c881b9bdc88185c1c1c9bdd9959607a1b606082015260800190565b60008219821115611927576119276119ed565b500190565b60008261193b5761193b611a03565b500490565b600082821015611952576119526119ed565b500390565b60005b8381101561197257818101518382015260200161195a565b838111156109e75750506000910152565b600181811c9082168061199757607f821691505b602082108114156119b857634e487b7160e01b600052602260045260246000fd5b50919050565b60006000198214156119d2576119d26119ed565b5060010190565b6000826119e8576119e8611a03565b500690565b634e487b7160e01b600052601160045260246000fd5b634e487b7160e01b600052601260045260246000fd5b634e487b7160e01b600052604160045260246000fd5b6001600160e01b031981168114611a4557600080fd5b5056fea26469706673582212201d16ea7f80520ea284af9707046ff0f5a5eae9218009b803f3cd5fa832e9ecb764736f6c63430008040033",
  "linkReferences": {},
  "deployedLinkReferences": {}
}